:020000040000FA
:100000000C9408010C9430010C9430010C943001D4
:100010000C9430010C9430010C9430010C9430019C
:100020000C9430010C9430010C948D150C9430011B
:100030000C9430010C9410150C9430010C94300188
:100040000C946E140C9430010C94DE140C94B814BF
:100050000C9430010C9430010C9430010C9430015C
:100060000C9430010C943001726170617A2E7761CA
:100070007600726164696F2E7761760063617661E4
:100080006C6F2E77617600652E7761760045692E5C
:1000900077617600313030303030302E7761760045
:1000A000313030302E776176003930302E776176FE
:1000B000003830302E776176003730302E77617619
:1000C000003630302E776176003530302E7761760D
:1000D000003430302E776176003330302E77617601
:1000E000003230302E776176003130312E776176F4
:1000F000003130302E7761760039302E776176000E
:1001000038302E7761760037302E776176003630C2
:100110002E7761760035302E7761760034302E7779
:1001200061760033302E7761760032302E7761763B
:100130000031392E7761760031382E7761760031C3
:10014000372E7761760031362E7761760031352E85
:100150007761760031342E7761760031332E776106
:10016000760031322E7761760031312E776176005C
:1001700031302E77617600392E77617600382E7710
:10018000617600372E77617600362E7761760035FE
:100190002E77617600342E77617600332E77617684
:1001A00000322E77617600312E77617600000000F4
:1001B0000800020100000304070000000000000026
:1001C0000000000000250028002B00000000002493
:1001D0000027002A000404040404040404020202A8
:1001E0000202020303030303030102040810204078
:1001F000800102040810200102040810207C3C3E0B
:100200005E2B3D3F2F5B5D3B2C2A225C00000916D4
:1002100011241FBECFEFD8E0DEBFCDBF25E0AAE797
:10022000B1E001C01D92AA32B207E1F711E0A0E0EF
:10023000B1E0E8E7FEE302C005900D92AA37B107EE
:10024000D9F711E0C8E0D1E004C02197FE010E9477
:10025000E81DC730D107C9F70E9460160C943A1FF9
:100260000C940000E0912405F0912505309721F0D1
:1002700081E09581911101C080E0089590E0FC013A
:10028000E751FE4F24918B529E4FFC0184918823AD
:1002900099F090E0880F991FFC01E553FE4FA5915E
:1002A000B491FC01EF53FE4F859194918FB7F89470
:1002B000EC91E22BEC938FBF089590E0FC01E355A5
:1002C000FE4F2491FC01E751FE4F3491FC01EB52AB
:1002D000FE4FE491EE23C9F0222339F0233001F1DF
:1002E000A8F4213019F1223029F1F0E0EE0FFF1FC0
:1002F000EF53FE4FA591B4918FB7F894EC91611133
:1003000026C030953E233C938FBF08952730A9F037
:100310002830C9F0243049F7809180008F7D03C0D8
:10032000809180008F7780938000DFCF84B58F77B6
:1003300084BDDBCF84B58F7DFBCF8091B0008F77FC
:100340008093B000D2CF8091B0008F7DF9CF3E2B4B
:10035000DACF3FB7F89480918D0190918E01A091F2
:100360008F01B091900126B5A89B05C02F3F19F0D1
:100370000196A11DB11D3FBFBA2FA92F982F882725
:10038000BC01CD01620F711D811D911D42E0660F00
:10039000771F881F991F4A95D1F708958F929F92D2
:1003A000AF92BF92CF92DF92EF92FF924B015C012E
:1003B0000E94A9016B017C010E94A9016C197D09B1
:1003C0008E099F09683E734081059105A8F321E0DD
:1003D000821A9108A108B10888EEC80E83E0D81EE1
:1003E000E11CF11C81149104A104B10429F7FF90D0
:1003F000EF90DF90CF90BF90AF909F908F90089537
:100400002FB7F8946091890170918A0180918B01D6
:1004100090918C012FBF0895AF92BF92CF92DF923F
:10042000EF92FF920F931F93CF93DF936C017B01A9
:100430008B01040F151FEB015E01AE18BF08C0173A
:10044000D10759F06991D601ED91FC910190F081AD
:10045000E02DC6010995892B79F7C501DF91CF9170
:100460001F910F91FF90EF90DF90CF90BF90AF90D2
:100470000895FC01538D448D252F30E0842F90E0AA
:10048000821B930B541710F0CF960895019708958F
:10049000FC01918D828D981761F0A28DAE0FBF2F58
:1004A000B11D5D968C91928D9F5F9F73928F90E0AE
:1004B00008958FEF9FEF0895FC01918D828D98171D
:1004C00031F0828DE80FF11D858D90E008958FEF5A
:1004D0009FEF08950F931F930E94000260932B04D7
:1004E00070932C0480932D0490932E0483E294E067
:1004F0000E945C0297FF1DC00E94000200912B0425
:1005000010912C0420912D0430912E04601B710B4E
:10051000820B930B00912704109128042091290449
:1005200030912A046017710782079307F8F28FEF62
:100530009FEF1F910F910895FC01918D228D892FBE
:1005400090E0805C9F4F821B91098F7399270895DB
:1005500083E294E00E949C0221E0892B09F420E0D0
:10056000822F089580E090E0892B29F00E94A80254
:1005700081110C9400000895FC01A48DA80FB92FDF
:10058000B11DA35ABF4F2C91848D90E001968F73BB
:100590009927848FA689B7892C93A089B1898C91DA
:1005A000837080648C93938D848D981306C0028829
:1005B000F389E02D80818F7D80830895EF92FF92F3
:1005C0000F931F93CF93DF93EC0181E0888F9B8D76
:1005D0008C8D98131AC0E889F989808185FF15C030
:1005E0009FB7F894EE89FF896083E889F989808153
:1005F0008370806480839FBF81E090E0DF91CF9122
:100600001F910F91FF90EF900895F62E0B8D10E043
:100610000F5F1F4F0F731127E02E8C8D8E110CC0B2
:100620000FB607FCFACFE889F989808185FFF5CFFD
:10063000CE010E94BC02F1CFEB8DEC0FFD2FF11D1E
:10064000E35AFF4FF0829FB7F8940B8FEA89FB893A
:1006500080818062CFCFCF93DF93EC01888D882398
:10066000B9F0AA89BB89E889F9898C9185FD03C015
:10067000808186FD0DC00FB607FCF7CF8C9185FFFA
:10068000F2CF808185FFEDCFCE010E94BC02E9CF81
:10069000DF91CF9108958FB7F89480917E018FBF3D
:1006A000089561E0FC0184810E945D0180917D01DB
:1006B000811110927D0108958EBD00000DB407FEDA
:1006C000FDCF8EB508958FEF0C945C030F931F93AD
:1006D000CF93DF93EC010E9400028B010E94630321
:1006E0008F3F69F00E940002601B710B6C177D0741
:1006F000A8F380E0DF91CF911F910F91089581E0E1
:10070000F9CF8CBD9DBD0895CF93DF93EC0180910F
:100710007D01811109C081E080937D018091C00439
:100720009091C1040E94810360E08C81DF91CF91A0
:100730000C945D018F929F92AF92BF92FF920F93A4
:100740001F93CF93DF93EC01F62E49015A018E815E
:10075000882389F08F8198859C012F5F3F4F3887D0
:100760002F838230924018F40E946303F3CFCE01AE
:100770000E9451031E82CE010E9484038CE291E00C
:100780000E9466038F2D80640E945C0308E110E0E4
:10079000D501C401002E04C0B695A79597958795FD
:1007A0000A94D2F70E945C0308501109083F8FEFAA
:1007B000180771F785E9FF2021F028E087E8F21299
:1007C0008FEF0E945C0310E00E9463038A8787FF1B
:1007D00004C01F3F11F01F5FF7CFDF91CF911F9132
:1007E0000F91FF90BF90AF909F908F900895AF9220
:1007F000BF92CF92DF92EF92FF920F931F93CF930E
:10080000DF93EC016901C801820F931F8130924090
:1008100050F58E81882379F088819981AA81BB81E6
:1008200084179507A607B70731F48F819885C816F6
:10083000D90608F042C0488359836A837B838B853D
:10084000833039F089E0440F551F661F771F8A9562
:10085000D1F79A01AB0161E1CE010E949A0388238E
:1008600089F083E08D83CE010E94510380E0DF9107
:10087000CF911F910F91FF90EF90DF90CF90BF909D
:10088000AF9008950E9400025B010E9463038A8773
:100890008F3F69F40E9400026A197B096D32714032
:1008A000A0F38FE08D83CE010E945103DCCF8E3FF9
:1008B00089F418861F8281E08E838F8198858C153C
:1008C0009D0550F40E9463038F8198850196988757
:1008D0008F83F3CF8DE0E6CF6701E00EF11E0E941B
:1008E0006303F60181936F01EE15FF05C1F78F8158
:1008F0009885080F191F18870F838985882319F099
:1009000001151240A0F08E81882389F08F8198858F
:100910009C012F5F3F4F38872F838230924018F41D
:100920000E946303F3CFCE010E9451031E8281E037
:100930009ECFCF92DF92EF92FF920F93CF93DF93F0
:10094000EC01690182E1411551056105710599F0DC
:100950008B85833039F089E0440F551F661F771F60
:100960008A95D1F79A01AB0168E1CE010E949A0302
:10097000882319F084E08D832DC08EEF0E945C03E4
:1009800076018EEFD81AF70181917F010E945C03F6
:10099000EC14FD04C1F78FEF0E945C038FEF0E94FF
:1009A0005C030E9463038A878F71853071F40111A3
:1009B00016C0CE010E94510381E0DF91CF910F91CB
:1009C000FF90EF90DF90CF90089581E18D83CE016D
:1009D0000E945103CE010E94510380E0EECF88E5D2
:1009E00092E00E946603811102C085E1C4CF20E03D
:1009F00030E0A9016DE0CE010E949A03882311F036
:100A000084E1B9CF0E9463038111FACFD2CF0F9353
:100A100040917F015091800160918101709182012C
:100A2000411551056105710599F0082F2BE132E060
:100A300080919101909192010E949904882349F03C
:100A400010927F0110928001109281011092820118
:100A500081E00F9108950F93CF93C82F80911A02D0
:100A6000811105C0C1E08C2FCF910F910895409165
:100A700003015091040160910501709106010C2F52
:100A80002BE132E080919101909192010E949904B2
:100A9000811102C0C0E0E7CFCC2321F381E00E94A6
:100AA00007058823B9F310921A02DDCF8F929F9227
:100AB000AF92BF92EF92FF920F931F93CF934B0190
:100AC0005C01C42F8091030190910401A091050164
:100AD000B091060188159905AA05BB0551F181E081
:100AE0000E942B0581110BC080E0CF911F910F91C7
:100AF000FF90EF90BF90AF909F908F9008958BE103
:100B0000E82E82E0F82E00E012E030E020E0B501AF
:100B1000A40180919101909192010E94F703882392
:100B200019F38092030190920401A0920501B09202
:100B3000060140911A024C2B40931A0281E0D5CF56
:100B40008F929F92AF92BF92CF92DF92EF92FF92DD
:100B5000CF9322EC34E030939201209391018823CB
:100B600009F46DC040E060E070E0CB010E945605E2
:100B700081110BC080E0CF91FF90EF90DF90CF907C
:100B8000BF90AF909F908F9008958091D9038F77F9
:100B900089F78091E5039091E603A091E703B09176
:100BA000E80384369105A105B10520F3C090E10367
:100BB000D090E203E090E303F090E403C114D10489
:100BC000E104F104B9F240E0C701B6010E94560504
:100BD000882381F28091260290912702811592400C
:100BE00049F6A0912B02AA2329F260912902709163
:100BF0002A026115710509F4BDCF20912802222334
:100C000009F4B8CFA093E0042093D20490E080E0F0
:100C100030E0E1E0F0E0C82FAF01082E02C0440F41
:100C2000551F0A94E2F72417350769F041E0480F91
:100C300001968930910579F74093DB049BCFC12C55
:100C4000D12C7601C0CF8093DB042091310230910A
:100C5000320250E040E02115310541F420913F027D
:100C60003091400240914102509142022093D304BE
:100C70003093D4044093D5045093D60446015701D1
:100C8000860E971EA11CB11C8092E1049092E20492
:100C9000A092E304B092E404E0912C02F0912D02C2
:100CA000F093E704E093E604B0E00E948D1DDC01C0
:100CB000CB01880D991DAA1DBB1D8093E80490935C
:100CC000E904A093EA04B093EB0425E0EE0FFF1FC4
:100CD0002A95E1F7E150FE4FEF2FFF27E6958E0FA3
:100CE0009F1FA11DB11D8093DC049093DD04A09390
:100CF000DE04B093DF0480902E0290902F02B12C7E
:100D0000A12C8114910441F480903B0290903C020C
:100D1000A0903D02B0903E02C81AD90AEA0AFB0A26
:100D2000C80CD91CEA1CFB1C04C0F694E794D794A9
:100D3000C794CA95D2F7C092D704D092D804E09253
:100D4000D904F092DA0485EFC8168FE0D806E104E2
:100D5000F10428F48CE08093E50481E00CCF80E17D
:100D600025EFC2162FEFD206E104F104A0F3809123
:100D7000470290914802A0914902B0914A028093A3
:100D8000E8049093E904A093EA04B093EB0480E2B2
:100D9000E2CF4F925F926F927F928F929F92AF922B
:100DA000BF92CF92DF92EF92FF920F931F93CF9358
:100DB000DF93EC01423051056105710590F480E04C
:100DC000DF91CF911F910F91FF90EF90DF90CF9027
:100DD000BF90AF909F908F907F906F905F904F905B
:100DE000089589859A85AB85BC850196A11DB11DA5
:100DF00084179507A607B70710F3CB88DC88ED8822
:100E0000FE888F89803109F042C0BB27A72F962F1B
:100E1000852F480159012A013B01C80ED91EEA1E3F
:100E2000FB1E8091030190910401A0910501B091F6
:100E30000601C816D906EA06FB0699F58F898031A6
:100E4000C1F5B301A201552766277727440F551F27
:100E5000455E5D4FFA019182808280911A02816025
:100E600080931A028A89823080F08D819E81AF81C1
:100E7000B8858C0D9D1DAE1DBF1D80937F01909385
:100E80008001A0938101B093820181E099CFDB01C1
:100E9000CA01E7E0B695A79597958795EA95D1F7AA
:100EA000B8CF40E0C701B6010E9456058111C6CFF8
:100EB00086CFB301A2014F77552766277727440FC6
:100EC000551F440F551F455E5D4FFA018082918288
:100ED000A282B382C2CF8F929F92AF92BF92CF92E3
:100EE000DF92EF92FF920F931F93CF93DF93FC015A
:100EF00081859285A385B4850196A11DB11D8417B6
:100F00009507A607B70770F480E0DF91CF911F9196
:100F10000F91FF90EF90DF90CF90BF90AF909F9098
:100F20008F90089583889488A588B68887898031B2
:100F300089F5BB27A72F962F852FE9016A017B0131
:100F40008F01BC01CD01680D791D8A1D9B1D80900C
:100F5000030190900401A0900501B090060186164F
:100F60009706A806B90601F5F8018789803111F5C1
:100F7000DD24EE24FF24F601EE0FFF1FE55EFD4F9A
:100F800080819181B0E0A0E088839983AA83BB83AC
:100F900081E0BBCFDB01CA01C7E0B695A795979565
:100FA0008795CA95D1F7C9CF40E00E9456058111B7
:100FB000DBCFAACFE894C7F8DD24EE24FF24F601A6
:100FC000EE0FFF1FEE0FFF1FE55EFD4F8081918149
:100FD000A281B381BF70D8CF4F925F926F927F9200
:100FE000AF92BF92CF92DF92EF92FF920F931F9337
:100FF000CF93DF9300D000D0CDB7DEB78C0149830B
:101000005A836B837C835901C12CD12C7601412CEE
:1010100082E0582E612C712C49815A816B817C8130
:101020009E012F5F3F4FC8010E946B07882339F153
:10103000F8018585A301920104C0220F331F441FCC
:10104000551F8A95D2F7DA01C901C80ED91EEA1ECA
:10105000FB1E49815A816B817C818789803111F126
:1010600088EF9FEFAFEFBFE0481759076A077B078C
:1010700098F2F501C082D182E282F38281E00F9082
:101080000F900F900F90DF91CF911F910F91FF90D4
:10109000EF90DF90CF90BF90AF907F906F905F9078
:1010A0004F90089588EF9FEFA0E0B0E0DDCFCF93A1
:1010B000DF93FC012581222321F080E0DF91CF9195
:1010C0000895EC018091E504803159F582E0858333
:1010D000178A108E118E128E8091E6049091E7048B
:1010E000B0E0A0E025E0880F991FAA1FBB1F2A953A
:1010F000D1F7838B948BA58BB68B8EEC94E09C8F71
:101100008B8F81E08C831E821F82188619861A8637
:101110001B861C861D861E861F86188A198A1A8AB7
:10112000CDCF803251F683E085834091E804509121
:10113000E9046091EA047091EB04478B508F618F52
:10114000728F9F012D5E3F4F8EEC94E00E94EC0762
:101150008111D3CFB2CF8F929F92AF92BF92CF9295
:10116000DF92EF92FF920F931F93CF93DF93EC01E7
:101170008D8181110EC080E0DF91CF911F910F9181
:10118000FF90EF90DF90CF90BF90AF909F908F90A7
:1011900008950B891C892D893E8904171507260798
:1011A000370748F34A015B01823031F48A869B8617
:1011B000AC86BD8681E0E0CF81149104A104B10426
:1011C00049F41E821F82188619861A861B861C8681
:1011D0001D86F0CF0A851B852C853D85EB8DFC8D0A
:1011E000858590E00996B901A8014150510961092E
:1011F0007109082E04C076956795579547950A940E
:10120000D2F775016401E1E0CE1AD108E108F108D6
:1012100004C0F694E794D794C7948A95D2F7C4167D
:10122000D506E606F70620F0012B022B032B11F55D
:101230008F89988DA98DBA8D8E839F83A887B98752
:101240008E010A5F1F4FC114D104E104F10409F4B7
:10125000ADCF4E815F816885798598018B8D9C8D9E
:101260000E946B0791E0C91AD108E108F1088111C9
:10127000EACF81CFC41AD50AE60AF70AE1CF209156
:101280002405309125052115310541F0AB01BC0144
:10129000C9010E94AB0891E0811101C090E0892F43
:1012A00008953F924F925F926F927F928F929F929A
:1012B000AF92BF92CF92DF92EF92FF920F931F9364
:1012C000CF93DF93CDB7DEB72C970FB6F894DEBF80
:1012D0000FBECDBF5C01DC015B968D909C905C974E
:1012E00016964D905D906D907C9019974114510425
:1012F0006104710409F468C0BFEF4B1A5B0A6B0A02
:101300007B0A312CF40181859285A385B4859C01EB
:10131000AD012F5F3F4F4F4F5F4F29873A874B8774
:101320005C87730162011D821E821F821886F40190
:1013300081859285A385B4852D813E814F81588515
:10134000281739074A075B0708F056C089859A8530
:10135000AB85BC858C159D05AE05BF0550F482E0BC
:10136000C82ED12CE12CF12C92E0492E512C612C6D
:10137000712C9E012F5F3F4FB701A601C4010E944F
:101380006B078823C9F189819A81AB81BC81892B44
:101390008A2B8B2B09F1260137019FEF491A590A35
:1013A000690A790A2D813E814F8158852F5F3F4F11
:1013B0004F4F5F4F2D833E834F8358873FEFC31AB4
:1013C000D30AE30AF30AB3CFF4014080518062806C
:1013D00073803324339496CFC414D504E604F70401
:1013E00009F70FEF1FEF2FEF3FE0B701A601C40190
:1013F0000E94C906811119C080E02C960FB6F8949E
:10140000DEBF0FBECDBFDF91CF911F910F91FF9037
:10141000EF90DF90CF90BF90AF909F908F907F9094
:101420006F905F904F903F900895D50116964D9123
:101430005D916D917C91199741155105610571057B
:1014400039F097018601C4010E94C9068823A1F2E0
:10145000D5011696CD92DD92ED92FC92199733202C
:1014600051F0D701C6010196A11DB11DF401808381
:101470009183A283B383F5018789908DA18DB28D6D
:10148000892B8A2B8B2B39F48481C78AD08EE18EED
:10149000F28E80688483F50184818062848381E098
:1014A000ACCF2F923F924F925F926F927F928F922A
:1014B0009F92AF92BF92CF92DF92EF92FF920F93E3
:1014C0001F93CF93DF93EC015B012A018D81811182
:1014D00015C08FEF9FEFDF91CF911F910F91FF907C
:1014E000EF90DF90CF90BF90AF909F908F907F90C4
:1014F0006F905F904F903F902F9008958C8180FF68
:10150000E8CF0B891C892D893E894A855B856C85CE
:101510007D85C201B0E0A0E068017901C41AD50A56
:10152000E60AF70AC816D906EA06FB0618F42801E7
:10153000441A550A42011E0126E0220E311C811474
:10154000910409F4B3C04A855B856C857D856A0189
:1015500081E0D8228B8D9C8D8A019B01E9E0369534
:10156000279517950795EA95D1F7ED81E230E1F5DA
:10157000FC01628D738D848D958D600F711F821FAC
:10158000931F612C22E0722E6C187D08861497043C
:1015900008F434012C8126FD04C06114F2E07F06BA
:1015A00071F4009103011091040120910501309123
:1015B0000601061717072807390709F053C040E04E
:1015C0000E945605882309F484CFC601855E9D4F8D
:1015D000D5019C01260D371DFC012E173F0709F48C
:1015E00060C041914D93F9CFFC0174807A947022D0
:1015F000C114D10471F471100CC0452B462B472B3C
:1016000039F58F89988DA98DBA8D8E839F83A88790
:10161000B987EB8DFC8D6E817F81888599856250BD
:10162000710981099109258504C0660F771F881FFC
:10163000991F2A95D2F70685178520893189600F71
:10164000711F821F931F670D711D811D911D99CF01
:101650004E815F816885798591010E946B078111B8
:10166000D8CF37CF750183019601AB01BC018091C2
:101670009101909192010E94F703882309F429CFE8
:10168000A60CB71C8A859B85AC85BD85860D971DEC
:10169000A11DB11D8A879B87AC87BD8786189708D7
:1016A0004ECF281B390BA20EB31EECCFC20113CFB5
:1016B0001F93CF93DF93FC0125812223D1F1162FB5
:1016C000EC01848187FF2AC06685778580899189AE
:1016D00041E00E945605882361F1EA8980E2E89F93
:1016E000F0011124E55EFD4F309719F18D818230B4
:1016F00040F48B899C89AD89BE89848F958FA68F94
:10170000B78F8F89988D938F828F8F89988DA98DB0
:10171000BA8DB58BA48B8C818F778C83111103C00C
:101720008C818F7E8C83812FDF91CF911F910C94C0
:101730002B0580E0DF91CF911F910895FF920F93C9
:101740001F93CF93DF93EC018D81813041F090E0C6
:1017500080E0DF91CF911F910F91FF9008958C81D0
:1017600081FFF5CF82FD1BC0009191011091920184
:10177000C8010E9484030E946303F82EC8010E94DE
:1017800051038FEFF812E3CF8C8185FF1BC060E01F
:10179000CE010E94580B8C818F7D8C83D8CF4B89D2
:1017A0005C896D897E898A859B85AC85BD8584171A
:1017B0009507A607B707C1F2CE010E94AB088111B9
:1017C000D3CFC5CF40917F015091800160918101BD
:1017D00070918201452B462B472B21F080E00E941F
:1017E0000705B5CF80618C832A853B85317080E009
:1017F00092E0821B930BADCFCF93DF93EC0161E0BE
:101800000E94580B882311F01D8281E0DF91CF9157
:1018100008952F923F924F925F926F927F928F9294
:101820009F92AF92BF92CF92DF92EF92FF920F936F
:101830001F93CF93DF9300D000D01F92CDB7DEB7B8
:101840007C015B01342E5D83DC0115968C9115972C
:10185000813009F0CEC014962C9021FECAC022FC23
:10186000B4C0C32CDD8022947FE027222094B22DC7
:10187000B1702B2ED7011A964D915D916D917C918F
:101880001D97C114D10409F428C15B968D919C91D8
:101890005C97FC0174807A948A019B0169E036951B
:1018A0002795179507956A95D1F770228A011170CF
:1018B000711020C001151105E9F416964D915D9146
:1018C0006D917C911997411551056105710509F0DC
:1018D00099C057968D919D910D90BC91A02D009728
:1018E000A105B10509F0B0C0C7010E9451098823C4
:1018F00009F47FC080E092E0801B910B46018C15BB
:101900009D0508F44C01D7015B964D915C915C9765
:1019100016968D919D910D90BC91A02D0297A109D5
:10192000B109FA01258504C0880F991FAA1FBB1FA2
:101930002A95D2F74685578560897189840F951F4E
:10194000A61FB71F9C01AD01270D311D411D511D63
:1019500029013A01811432E0930609F07BC080919D
:10196000030190910401A0910501B0910601841535
:101970009505A605B70559F48FEF9FEFDC0180931D
:10198000030190930401A0930501B0930601022D79
:101990009501B301A20180919101909192010E9461
:1019A0009904882331F19EEFB91AC818D908F701B4
:1019B00082859385A485B585880D991DA11DB11DCE
:1019C00082879387A487B58755CFF70143895489C8
:1019D0006589768982859385A485B58548175907D9
:1019E0006A077B0709F43DCFC7010E94AB0881114C
:1019F00038CF81E090E0D70113969C938E93129795
:101A000080E007C09E012F5F3F4F0E946B0781114E
:101A100002C090E079C089819A81AB81BC81F701D5
:101A2000238D348DF901278948EF5FEF60E070E086
:101A3000203121F048EF5FEF6FEF7FE084179507CB
:101A4000A607B70708F050CFF70186839783A087D2
:101A5000B18750CF0115110599F5D7011A964D910F
:101A60005D916D917C911D9753968D919D910D90F7
:101A7000BC91A02D481759076A077B0708F181E040
:101A80000E942B05882309F4B4CF409203015092A1
:101A90000401609205017092060180911A02816032
:101AA00080931A02C801855E9D4FD5019C01280DC7
:101AB000391DFC012E173F0759F04D914193FACF84
:101AC00041E0C301B2010E9456058111EBCF91CFD5
:101AD000281B390BA20EB31E68CFF70183899489A6
:101AE000A589B68984179507A607B70738F48481B6
:101AF000438B548B658B768B80688483F70184815C
:101B000083FD1AC0832D9D810F900F900F900F9031
:101B10000F90DF91CF911F910F91FF90EF90DF9089
:101B2000CF90BF90AF909F908F907F906F905F907D
:101B30004F903F902F90089561E0C7010E94580B8D
:101B4000882309F456CFDECFCF93DF931F92CDB712
:101B5000DEB7698341E050E0BE016F5F7F4F0E94B6
:101B6000090C0F90DF91CF910895FC01DB011296D3
:101B70008D919C9113979383828387E291E0918367
:101B8000808314968C911497848315968C91159765
:101B9000858316964D915D916D917C911997468341
:101BA0005783608771871A964D915D916D917C91F5
:101BB0001D9742875387648775871E964D915D9167
:101BC0006D917C91519746875787608B718B5296A8
:101BD0008C915297828B53964D915D916D917C9132
:101BE0005697438B548B658B768B57964D915D91B1
:101BF0006D917C915A97478B508F618F728F5B9656
:101C00008D919C91948F838F0895FC01818D928D8D
:101C1000009719F061E00C94580B0895DC01599677
:101C2000ED91FC913097B9F083899489A589B689A3
:101C30004285538564857585841B950BA60BB70B70
:101C4000811520E89207A105B10538F08FEF9FE7D5
:101C5000A0E0B0E0089590E080E00895DC0159969E
:101C60008D919C91009739F0DC01ED91FC910480FD
:101C7000F581E02D099490E080E00895CF93DF9303
:101C8000EC01E98DFA8D309749F481E090E09B8377
:101C90008A8390E080E0DF91CF91089513821282D1
:101CA000898D9A8D0E94090CE98DFA8D22813381EC
:101CB000232B59F7F0CFCF93DF931F92CDB7DEB729
:101CC0006983DC01ED91FC910280F381E02D41E01C
:101CD00050E0BE016F5F7F4F09950F90DF91CF916C
:101CE0000895CF93DF931F92CDB7DEB741E050E068
:101CF000BE016F5F7F4F0E94510A019731F48981C5
:101D000090E00F90DF91CF9108958FEF9FEFF9CF83
:101D1000FC01818D928D009711F00C94710E8FEF64
:101D20009FEF08950F931F93CF93DF93EC01898D5D
:101D30009A8D10E000E0009799F00E94710E8C01DE
:101D40000F3F100769F0898D9A8DFC0142855385FC
:101D50006485758541505109610971090E94AB087C
:101D6000C801DF91CF911F910F9108950895FC0153
:101D700001900020E9F73197AF01481B590BBC01D6
:101D800083E294E00C940C020F931F93CF93DF93A4
:101D9000EC0180E2689FF0011124E55EFD4F6A8B43
:101DA0008091030190910401A0910501B091060179
:101DB0008E879F87A88BB98B0489158930E020E036
:101DC0009801112700270F8B188F298F3A8F828D4A
:101DD000938DB0E0A0E0AC01BD01402B512B622BF4
:101DE000732B4F8B588F698F7A8F83858871A9F4F5
:101DF000848D958DA68DB78D8B8B9C8BAD8BBE8B7B
:101E000081E08D8381E08C831E821F821886198673
:101E10001A861B861C861D8603C0803131F080E047
:101E2000DF91CF911F910F9108959E012D5E3F4F3D
:101E30008B8D9C8D0E94EC07882389F384E0E1CF91
:101E4000AF92BF92CF92DF92EF92FF920F931F93C8
:101E5000CF93DF93CDB7DEB72B970FB6F894DEBFE5
:101E60000FBECDBF6C01FE013196CE010C967F01F5
:101E700020E22193E817F907E1F7DA0120E037E0E3
:101E80009D91B92E9923A9F19E32B9F43A3091F47B
:101E900080E02B960FB6F894DEBF0FBECDBFDF916A
:101EA000CF911F910F91FF90EF90DF90CF90BF9057
:101EB000AF90089528E03AE0E3CFEDEFF1E08491B0
:101EC000882321F031969813FACFE2CF321700F32E
:101ED0008FED890F8E35E0F68FE9890F8A3118F47E
:101EE00040EEB42EB90EF701E20FF11DB0822F5F64
:101EF000C7CF8981803261F28B01FB01838D948D84
:101F0000F601948F838FFB0116821782108611864B
:101F10001286138614861586F80182859385A4851A
:101F2000B585438954896589768984179507A607FD
:101F3000B70708F0ADCF25E0B695A795979587959B
:101F40002A95D1F7F82FFF70AF2EF80185818230E6
:101F500008F49ECFC8010E94710E97FD99CFF80139
:101F600082859385A485B5854F96A11DB11D828775
:101F70009387A487B587F0E2AF9EB0011124655E18
:101F80007D4F6115710509F483CFFB0180818823A2
:101F900009F1853E19F4B11032C01EC04BE050E08B
:101FA000C7010E94131F892B09F0B6CF6A2DC60105
:101FB0002B960FB6F894DEBF0FBECDBFDF91CF9149
:101FC0001F910F91FF90EF90DF90CF90BF90AF9057
:101FD0000C94C40EB1105CCFF601A28A809103016B
:101FE00090910401A0910501B09106018687978721
:101FF000A08BB18BFB018081882309F449CFBB24DE
:10200000B3948ACF8091240590912505009761F0C3
:102010000E94FC0B80912405909125050E948A1E48
:1020200010922505109224050895EF92FF920F93C8
:102030001F93CF93DF93EC017B018A011B821A82ED
:1020400088EE93E0A0E0B0E08C839D83AE83BF83F5
:1020500083E391E0998388838DE190E00E94EE1DF7
:102060009A8F898F009779F02DE1F701DC010190BB
:102070000D922A95E1F74CE050E0B801CE010C96A4
:102080000E942B1F188EDF91CF911F910F91FF900F
:10209000EF9008952F923F924F925F926F927F92AE
:1020A0008F929F92AF92BF92CF92DF92EF92FF9268
:1020B0000F931F93CF93DF93CDB7DEB7C257D109EC
:1020C0000FB6F894DEBF0FBECDBF5C0190911B042C
:1020D00080912204981709F473C01092180280911D
:1020E0006F008E7D80936F000E94320181110E94EB
:1020F00002108091800090E0880F892F881F990B33
:102100000197C9F5809188009091890050E040E0E6
:1021100020912004309121044217530764F570E0A8
:1021200060E097FD05C0B901821793070CF4BC016C
:1021300070938B0060938A0070E060E097FD05C0AB
:10214000B901821793070CF4BC0170938900609366
:102150008800225331096AE070E0E0918400F09138
:102160008500E217F307C8F361507109B1F74F5FBB
:102170005F4F0197CDCF8091020180628093020171
:10218000109281001092800080911B040E943E01F9
:1021900080911B04863009F452C08E3209F451C07C
:1021A000853009F050C081E0809319028DB58160BF
:1021B0008DBD8CB58C7F8CBD80911B0480932204D7
:1021C0001092180280916F008E7D80936F000E94A4
:1021D000320181110E94021019A218A287E291E037
:1021E0009F8F8E8F1BA21C821B829A8389831E82E3
:1021F0004E016EE1860E911CC4010E9457086501D4
:102200008E010F5F1F4F240118016FE270E0C601BD
:102210000E94201F009709F461C0F60120812F322F
:10222000A9F4FFEFCF1ADF0A902F812F8201492EE8
:10223000582E942D852D2801092F182FE6CF82E0E6
:10224000B3CF83E0B1CF10921902B0CF8C198D308B
:1022500008F08CE0E82EF12CA701B601CE01885AD7
:102260009F4F0E942B1FE8E5F0E0EC0FFD1FEE0DE5
:10227000FF1D1082C8010E94FC0BF8018581882394
:10228000F1F01EAE1DAE87E291E09CAF8BAF2196C0
:102290001FAE2197A60CB71CF5018081811127C0C4
:1022A000BE01655C7F4FC1010E94B50D41E451E064
:1022B000B101CE01885A9F4F0E9415103FC0AE0158
:1022C000485A5F4FB201C8010E94200F8823C9F20B
:1022D000CE0CDF1CC2010E94FC0BABCF36016A188A
:1022E0007B08B201CE01CB960E94B50DD3CF19A2C7
:1022F00018A287E291E09F8F8E8F1BA221968FAD4F
:102300002197811157C16C961FAE1EAE6C9788EE57
:1023100093E0A0E0B0E0A0968CAF9DAFAEAFBFAFB2
:10232000A09783E391E06A969FAF8EAF6A97E3969A
:102330001FAE1EAEE397A5961FAEA5976C968EAD09
:102340009FAD6C9790930E0580930D05A0968CAD74
:102350009DADAEADBFADA09780930F0590931005D6
:10236000A0931105B0931205A4968CAD9DADAEADB2
:10237000BFADA4978093130590931405A093150502
:10238000B0931605A8E5B0E0AC0FBD1F1C96E7E1C1
:10239000F5E08D91819365E0E432F607D1F7E3969D
:1023A0008EAD9FADE39790932505809324050E9401
:1023B0003201882309F4E4C068E070E080E090E036
:1023C0000E943F0980910D0190910E01A0910F0193
:1023D000B091100189839A83AB83BC8381017E0114
:1023E00075E0E70EF11C8BE095E00E94880EF80185
:1023F00021918F01022E000C330B8217930719F4E1
:10240000EE15FF0581F768E170E080E090E00E9442
:102410003F098BE095E00E94880E90931F04809303
:102420001E048BE095E00E94880E20E0382F8091FA
:102430001E0490911F04282B392B30931F042093E6
:102440001E046CE270E080E090E00E943F0980E4AE
:1024500090E0909317028093160281E08093180217
:1024600080910201982F9F779093020120911E0482
:1024700030911F042B3F3F4A30F020EC3DE5309374
:102480001F0420931E0420911E0430911F0450E06D
:1024900040E086FFA3C060E075E38CE090E00E941E
:1024A000C91D6AE0629FC001639F900D1124909343
:1024B0002104809320048BE095E00E94880E8C011B
:1024C0008BE095E00E94920E800F911F97FD019680
:1024D0009595879530911502432F032E000C550BCF
:1024E00013160CF080C04091880050918900BA0109
:1024F00002C0769567953A95E2F79B01992750E0DF
:1025000040E02817390708F07BC02F5F3F4F821744
:10251000930708F49C01FA01EB56FE4F20834F5FAE
:102520005F4F4034510589F750E040E02F5F3F4F47
:102530008217930708F49C01FA01EB52FE4F2083A7
:102540004F5F5F4F4034510589F71092940110920C
:1025500000011092010110929301F89480912004DF
:1025600090912104909387008093860082EB809362
:10257000800089E18093810081E280936F007894EC
:10258000CE58DF4F0FB6F894DEBF0FBECDBFDF9140
:10259000CF911F910F91FF90EF90DF90CF90BF9060
:1025A000AF909F908F907F906F905F904F903F90F3
:1025B0002F900895A501BE01655C7F4FC4010E9464
:1025C000200F882309F49FCECE01CB960E94FC0BEE
:1025D000B401C1010E94B50DA5016ACE60E07AE6A2
:1025E00088E190E05CCF209188003091890051957E
:1025F0004195510902C0220F331F4A95E2F77ECF61
:10260000B901615071096817790718F12115310571
:1026100009F09B01FA01EB56FE4F20834F5F5F4F9D
:102620004034510569F750E040E0B901615071094B
:102630006817790780F02115310509F09B01FA012F
:10264000EB52FE4F20834F5F5F4F4034510569F7D7
:102650007CCF9C01DFCF9C01F2CFCF93DF93CDB72E
:10266000DEB7AD970FB6F894DEBF0FBECDBF0297B1
:102670008A32910508F02FC0FC01EF5BFC4E0C94F0
:10268000E81D84139313961399139C139F13A2139D
:10269000A513A813AB13AE13B113C013C313C61302
:1026A000D513D813DB13DE13E113E413E713EA1396
:1026B000ED13F013F313F613F913FC13FF130E14B9
:1026C00011141414171426142914381447144A1416
:1026D0004D145C145F1467EA71E0CE0101960E940C
:1026E000861DCE0101960E944A106CE872E080E0DF
:1026F00090E00E94CE01AD960FB6F894DEBF0FBEFB
:10270000CDBFDF91CF91089561EA71E0CE010196CE
:102710000E94861DCE0101960E944A106CEB72E069
:1027200080E090E0E6CF6BE971E0F0CF65E971E021
:10273000EDCF6FE871E0EACF69E871E0E7CF63E8D9
:1027400071E0E4CF6DE771E0E1CF67E771E0DECFE4
:1027500060E771E0DBCF69E671E0D8CF62E671E057
:10276000D5CF6BE571E0CE0101960E94861DCE01AA
:1027700001960E944A1060E273E080E090E0B9CFD9
:1027800064E571E0F0CF6DE471E0EDCF66E471E0F7
:10279000CE0101960E94861DCE0101960E944A102C
:1027A00064E873E080E090E0A4CF6FE371E0F0CFE5
:1027B00068E371E0EDCF61E371E0EACF6AE271E0D6
:1027C000D2CF63E271E0E4CF6CE171E0E1CF65E18B
:1027D00071E0DECF6EE071E0DBCF67E071E0D8CF73
:1027E00060E071E0D5CF69EF70E0D2CF61EF70E0CB
:1027F000CFCF69EE70E0CCCF61EE70E0C9CF69ED6C
:1028000070E0CE0101960E94861DCE0101960E94C5
:102810004A1068EE73E080E090E06BCF61ED70E00D
:10282000F0CF69EC70E0EDCF61EC70E0EACF69EBDE
:1028300070E0CE0101960E94861DCE0101960E9495
:102840004A1068E775E080E090E053CF61EB70E0FC
:10285000F0CF69EA70E0CE0101960E94861DCE019C
:1028600001960E944A1067EF74E080E090E041CF4B
:1028700060EA70E0CE0101960E94861DCE010196AD
:102880000E944A1066E972E080E090E032CF64E98D
:1028900070E0B7CF6DE870E0B4CF67E870E0CE01CC
:1028A00001960E94861DCE0101960E944A1066E2A2
:1028B00072E080E090E01DCF6CE770E0A2CF62E7AD
:1028C00070E0CE0101960E94861DCE0101960E9405
:1028D0004A1068EC7FEA80E090E00BCF1F920F92E5
:1028E0000FB60F9211242F933F938F939F93AF9323
:1028F000BF938091890190918A01A0918B01B09141
:102900008C013091880123E0230F2D3758F5019673
:10291000A11DB11D209388018093890190938A01A4
:10292000A0938B01B0938C0180918D0190918E01C9
:10293000A0918F01B09190010196A11DB11D8093CE
:102940008D0190938E01A0938F01B0939001BF9160
:10295000AF919F918F913F912F910F900FBE0F904C
:102960001F90189526E8230F0296A11DB11DD2CF06
:102970001F920F920FB60F9211242F933F934F93F4
:102980005F936F937F938F939F93AF93BF93EF93D7
:10299000FF9383E294E00E94BC02FF91EF91BF910C
:1029A000AF919F918F917F916F915F914F913F91E7
:1029B0002F910F900FBE0F901F9018951F920F929E
:1029C0000FB60F9211242F938F939F93EF93FF9342
:1029D000E0913304F09134048081E0913904F09166
:1029E0003A0482FD1BC0908180913C048F5F8F73FD
:1029F00020913D04821741F0E0913C04F0E0ED5D50
:102A0000FB4F958F80933C04FF91EF919F918F91A5
:102A10002F910F900FBE0F901F9018958081F4CFCB
:102A20001F920F920FB60F9211242F933F934F9343
:102A30005F938F939F93EF93FF938091020186FDA5
:102A40003FC020911502422F022E000C550B27FF8C
:102A50004FC0809194012091930130E4839FC00185
:102A600011248B569E4F820F911DFC01808190E0B6
:102A700051954195510902C0959587954A95E2F780
:102A800090938B0080938A009093890080938800B4
:102A9000809193018F5F80939301809193018034A3
:102AA000D0F010929301E0919401F0E0E050FF4FDC
:102AB00091E09083809194018927809394010BC0C9
:102AC00080917C0191E0892780937C0180917C0139
:102AD000882309F4B6CFFF91EF919F918F915F9179
:102AE0004F913F912F910F900FBE0F901F9018950F
:102AF0008091940130919301F0E48F9FC0011124E3
:102B00008B569E4F830F911DFC01808190E002C087
:102B1000880F991F2A95E2F7B3CF1F920F920FB635
:102B20000F9211242F933F934F935F936F937F9353
:102B30008F939F93AF93BF93EF93FF93E091940193
:102B400091E0E927F0E0E050FF4F80818823B9F160
:102B500080919401892780937B0180916F008F7D04
:102B600080936F0078948BE095E00E940E0E209188
:102B70001602309117022817390794F1809102014B
:102B800083FF0CC06CE270E080E090E00E943F099F
:102B900080916F00806280936F0011C080916F0000
:102BA0008E7D80936F00E0912405F091250530978C
:102BB00021F0858181110E94021010921802FF916C
:102BC000EF91BF91AF919F918F917F916F915F91A5
:102BD0004F913F912F910F900FBE0F901F9018951E
:102BE00060917B018091240590912505009751F01B
:102BF00020E4629FB00111246B567E4F40E450E008
:102C00000E94510AE0917B01F0E0E050FF4F1082FA
:102C1000BFCFE3E2F4E01382128288EE93E0A0E0FB
:102C2000B0E084839583A683B78325E131E03183C7
:102C3000208325EC30E03587248724EC30E037878B
:102C4000268720EC30E0318B208B21EC30E0338B79
:102C5000228B22EC30E0358B248B26EC30E0378B56
:102C6000268B118E128E138E148EE0ECF4E020E58C
:102C700020831182E2ECF4E015821682118613861D
:102C800042E050E060E070E04487558766877787D0
:102C900013A215A614A627E231E033A722A717A690
:102CA000EBE0F5E01382128284839583A683B783D9
:102CB00083E391E091838083128E118E14860895B0
:102CC000CF93DF93CDB7DEB7AD970FB6F894DEBFE5
:102CD0000FBECDBF789484B5826084BD84B5816019
:102CE00084BD85B5826085BD85B5816085BD8091D7
:102CF0006E00816080936E0010928100809181004F
:102D00008260809381008091810081608093810046
:102D1000809180008160809380008091B100846008
:102D20008093B1008091B00081608093B000809169
:102D30007A00846080937A0080917A008260809328
:102D40007A0080917A00816080937A0080917A0085
:102D5000806880937A001092C100E0913304F09172
:102D6000340482E08083E0912F04F09130041082DB
:102D7000E0913104F09132048FEC808310923B0497
:102D8000E0913704F091380486E08083E0913504C7
:102D9000F0913604808180618083E0913504F09168
:102DA0003604808188608083E0913504F091360498
:102DB000808180688083E0913504F09136048081C1
:102DC0008F7D808389E080931B0484E00E943E0114
:102DD0008091F104882321F08CEE94E00E94FC0B9A
:102DE0001092CD041092CB041092C8041092C70424
:102DF00084E08093C6040E9400028B018091C60487
:102E00000E943E0161E08091C6040E945D01FFB610
:102E1000F89480918301811124C0EFEDF1E0849159
:102E2000E3EFF1E09491E82FF0E0EE0FFF1FE553A0
:102E3000FE4FA591B491EC91E92321F461E08AE081
:102E40000E945D018AE00E943E018CB580618CBDCC
:102E50008CB580648CBD8DE00E943E018BE00E94A9
:102E60003E01809183018F5F80938301FFBE82E5E5
:102E70008093C0041092C1048091C0049091C10459
:102E80000E9481035AE0F52E8FEF0E945C03FA94B2
:102E9000F110FACF82EC94E00E94840320E030E04D
:102EA000A90160E082EC94E00E949A03F82E8093DE
:102EB000CC0481E0F81609F446C00E940002601BB1
:102EC000710B613D774050F381E08093C70482EC41
:102ED00094E00E94510381E691E00E94B70E8EE5D6
:102EE00091E00E94B70E86E0E4E7F1E08E010F5F0B
:102EF0001F4FD80101900D928A95E1F7F8010190DA
:102F00000020E9F73197CF01801B910B9093870147
:102F100080938601F80101900020E9F73197E01BCA
:102F2000F10BAF0155954795E00FF11FD8019D01B9
:102F3000201B310B241735070CF09BC02C913291CC
:102F40003D932083F4CF2AEA31E040E050E068E08E
:102F500082EC94E00E949A0382FF2AC0F092CD0492
:102F60008091CD04C12CD12CE12C30E4F32E8230A1
:102F700019F0C12CD12C760120E030E0A90167E3E3
:102F800082EC94E00E949A03A701960169E282EC28
:102F900094E00E949A038093CC048823D1F00E948D
:102FA0000002601B710B613D774030F388E08DCFEC
:102FB00044E0F42E0E9463038093CC04FA94F11051
:102FC000F9CF8A3A11F082E080CF82E08093CD047D
:102FD000C7CF8091CD048230D1F420E030E0A90148
:102FE0006AE382EC94E00E949A03882311F086E061
:102FF0006CCF0E946303807C803C19F483E0809353
:10300000CD040E9463030E9463030E94630382EC69
:1030100094E00E94510380E58093C0041092C104A3
:1030200081E00E94A0058823B9F08CEE94E00E9414
:103030005708882309F44FCF83E491E00E94B70E2C
:103040008EE591E00E94B70E80911802882359F016
:1030500081E08093150247CF80E00E94A00588237D
:1030600009F439CFE2CF809102018064809302019C
:10307000EFCF2981203331F4029720F48BE290E0E6
:103080000E942D1380918601909187019093850174
:1030900080938401809184019091850197FD01C303
:1030A0008230910509F464C164F4009709F4F7C211
:1030B000019709F496C1809184019091850101974F
:1030C000E5CF8330910509F4ECC00497A1F78C811A
:1030D000ED818033D9F48AE090E0E13309F43EC019
:1030E000E253E83040F70E2E000CFF0BE258F74E8B
:1030F00080918601909187010C94E81DF9181219AE
:103100001B1924192D1936193F194819E13341F7B4
:10311000EFECE80FE93078F60E2E000CFF0BE356CB
:10312000F74E809186019091870123E030E0309343
:103130008501209384010C94E81DA618B118BA18D3
:10314000C318CC18D518DE18E718F018069724F025
:1031500089E290E00E942D138BE090E00E942D13F5
:103160005CC0069724F089E290E00E942D138CE069
:1031700090E0F4CF069724F089E290E00E942D13AE
:103180008DE090E0EBCF069724F089E290E00E947A
:103190002D138EE090E0E2CF069724F089E290E0D4
:1031A0000E942D138FE090E0D9CF069724F089E29A
:1031B00090E00E942D1380E190E0D0CF069724F09C
:1031C00089E290E00E942D1381E190E0C7CF06973D
:1031D00024F089E290E00E942D1382E190E0BECFBE
:1031E000069724F089E290E00E942D1383E190E09D
:1031F000B5CF079724F089E290E00E942D1384E177
:1032000090E00E942D13E0918401F0918501EC0F74
:10321000FD1F8081803309F04ECF86E290E00E944E
:103220002D1349CF079724F089E290E00E942D13D7
:1032300085E190E0E6CF079724F089E290E00E94D4
:103240002D1386E190E0DDCF079724F089E290E02E
:103250000E942D1387E190E0D4CF079724F089E2F4
:1032600090E00E942D1388E190E0CBCF079724F0E7
:1032700089E290E00E942D1389E190E0C2CF079788
:1032800024F089E290E00E942D138AE190E0B9CF0A
:10329000079724F089E290E00E942D138BE190E0E3
:1032A000B0CFEC81E153E93008F005CF0E2E000CD1
:1032B000FF0BEF59F64E80918601909187010C9497
:1032C000E81D6A197019791982198B1994199D19B9
:1032D000A619AF1905970CF4A0CF89E290E03ECF74
:1032E000059724F089E290E00E942D1382E090E09F
:1032F00035CF059724F089E290E00E942D1383E0FA
:1033000090E02CCF059724F089E290E00E942D13E5
:1033100084E090E023CF059724F089E290E00E94BA
:103320002D1385E090E01ACF059724F089E290E014
:103330000E942D1386E090E011CF059724F089E2DA
:1033400090E00E942D1387E090E008CF059724F0CD
:1033500089E290E00E942D1388E090E0FFCE05976F
:1033600024F089E290E00E942D1389E090E0F6CEEF
:10337000EB81E153E93008F09ECE0E2E000CFF0BDE
:10338000EC53F64E0C94E81DCD19D919DC19DF1950
:10339000E219E519E819EB19EE198A81803331F445
:1033A0008981803319F48CE190E039CF8DE190E090
:1033B00036CF8EE190E033CF8FE190E030CF80E2E6
:1033C00090E02DCF81E290E02ACF82E290E027CFFB
:1033D00083E290E024CF84E290E021CF85E290E088
:1033E0001ECFEA81E13309F078C0E981E053EA3089
:1033F00008F061CE0E2E000CFF0BE75FF54E8091BA
:1034000086019091870110928501109284010C949D
:10341000E81D131A1C1A251A2E1A371A401A491AAF
:10342000521A5B1A641A039724F089E290E00E9412
:103430002D138AE090E0F3CE039724F089E290E028
:103440000E942D138BE090E0EACE039724F089E2EE
:1034500090E00E942D138CE090E0E1CE039724F0E1
:1034600089E290E00E942D138DE090E0D8CE039782
:1034700024F089E290E00E942D138EE090E0CFCE00
:10348000039724F089E290E00E942D138FE090E0F2
:10349000C6CE039724F089E290E00E942D1380E1CC
:1034A00090E0BDCE039724F089E290E00E942D13B6
:1034B00081E190E0B4CE039724F089E290E00E948D
:1034C0002D1382E190E0ABCE039724F089E290E0E7
:1034D0000E942D1383E190E0A2CEE253E83008F57C
:1034E0000E2E000CFF0BE158F54E80918601909155
:1034F000870110928501109284010C94E81D871AAF
:10350000BF1AC81AD11ADA1AE31AEC1AF51A039775
:1035100024F089E290E00E942D1384E190E00E9463
:103520002D13809184019091850121E030E0813359
:10353000910511F430E020E0200F311FF9012081C6
:10354000222309F4B8CD800F911FDC01EC91E153E7
:10355000E93008F0B0CD0E2E000CFF0BEA54F54E0A
:1035600080918601909187010C94E81DFE1A071B3B
:10357000101B191B221B2B1B341B3D1B461B0397C7
:1035800024F089E290E00E942D1385E190E0C7CFFE
:10359000039724F089E290E00E942D1386E190E0E9
:1035A000BECF039724F089E290E00E942D1387E1BB
:1035B00090E0B5CF039724F089E290E00E942D13AC
:1035C00088E190E0ACCF039724F089E290E00E947C
:1035D0002D1389E190E0A3CF039724F089E290E0D6
:1035E0000E942D138AE190E09ACF039724F089E29C
:1035F00090E00E942D138BE190E091CF029724F090
:1036000089E290E00E942D1381E090E008CE0297BD
:1036100024F089E290E00E942D1382E090E0FFCD3B
:10362000029724F089E290E00E942D1383E090E05D
:10363000F6CD029724F089E290E00E942D1384E0F9
:1036400090E0EDCD029724F089E290E00E942D13E6
:1036500085E090E0E4CD029724F089E290E00E94BA
:103660002D1386E090E0DBCD029724F089E290E014
:103670000E942D1387E090E0D2CD029724F089E2DA
:1036800090E00E942D1388E090E0C9CD029724F0CD
:1036900089E290E00E942D1389E090E0C0CDE9819D
:1036A00056CF8AE0482E512C612C712C90E0292EA7
:1036B00090E0392E83E294E00E949C02892B09F469
:1036C000E5C00E946A02FC0197FDB6C08D329105EB
:1036D00021F0C0970A9708F0A7C0812C912C5401C3
:1036E000F12CE130F105D9F0ED32F10509F4A1C07A
:1036F000CF01C0970A9798F4AAE0B0E0A501940121
:103700000E948D1D4F01FF0FAA08BB08860E971E51
:10371000A81EB91EB0E38B1A9108A108B10883E274
:1037200094E00E9448020E946A02FC01C0970A9736
:10373000C0F2E130F105A9F2FF2041F0B094A0946D
:1037400090948094811C911CA11CB11C7401092CC3
:10375000000CAA08BB08B7FE73C06DE283E294E0D8
:103760000E94DE0222273327A901281939094A09B4
:103770005B0919A2FE01B1966F01CA01B901A3014B
:1037800092010E94A71D605DD6016E936D01211507
:1037900031054105510589F7C114D10419F0C6015D
:1037A0000E94B70E8EE591E00E94B70EE114F1047D
:1037B00009F46CC0F7013197EC32F10508F066C0EE
:1037C000E851F44E80918601909187010C94E81D98
:1037D000361C521C571C5C1C611C661C6B1C701C2C
:1037E000751C7A1C801C861C8C1C921C981CA71CA7
:1037F000B61CBB1CC01CC51CCB1CDA1CDF1CE41C8B
:10380000E91CEE1CF31CF81CFE1C041D0A1D191DEE
:103810001E1D231D281D371D461D4B1D501D561DE9
:103820005C1D621D681D771D83E294E00E944802C2
:1038300048CFFF24F39473CF812C912C540186CF71
:10384000A501940119A2FE01B1966F01CA01B90147
:10385000A30192010E94A71D605DD6016E936D01C8
:10386000211531054105510589F796CF02972CF0B6
:1038700067EA71E0C8010E94861DC8010E944A10D3
:1038800064EF71E080E090E00E94CE0121143104E9
:1038900009F410CF0E94A802882309F40BCF0E94DC
:1038A000000008CF61EA71E002973CF3E3CF6BE9D7
:1038B00071E0029714F3DECF65E971E00297ECF254
:1038C000D9CF6FE871E00297C4F2D4CF69E871E014
:1038D00002979CF2CFCF63E871E0029774F2CACFEF
:1038E0006DE771E002974CF2C5CF67E771E0029790
:1038F00024F2C0CF60E771E002970CF4BECFBACFDC
:1039000069E671E002970CF4B8CFB4CF62E671E0DB
:1039100002970CF4B2CFAECF6BE571E002970CF4D6
:10392000ACCFA8CF64E571E002970CF4A6CFA2CF8C
:1039300002972CF06DE471E0C8010E94861DC80159
:103940000E944A1060E273E080E090E09DCF029711
:103950002CF066E471E0C8010E94861DC8010E9437
:103960004A1064E873E080E090E08ECF6FE371E08E
:103970000297A4F3F0CF68E371E002977CF3EBCFFA
:1039800061E371E0029754F3E6CF6AE271E00297D7
:103990000CF473CF6FCF02972CF063E271E0C80193
:1039A0000E94861DC8010E944A1068E572E080E00E
:1039B00090E06ACF6CE171E00297A4F3F0CF65E18B
:1039C00071E002977CF3EBCF6EE071E0029754F365
:1039D000E6CF67E071E002972CF3E1CF60E071E0A1
:1039E000029704F3DCCF69EF70E00297DCF2D7CFE7
:1039F00061EF70E002970CF4B1CFADCF69EE70E0EB
:103A000002970CF4ABCFA7CF61EE70E002970CF4F5
:103A1000A5CFA1CF02972CF069ED70E0C8010E94FC
:103A2000861DC8010E944A1068EE73E080E090E0B5
:103A30002BCF61ED70E00297A4F3F0CF69EC70E05A
:103A400002977CF3EBCF61EC70E0029754F3E6CF82
:103A500002972CF069EB70E0C8010E94861DC80136
:103A60000E944A106CED75E080E090E00DCF029767
:103A70002CF061EB70E0C8010E94861DC8010E9415
:103A80004A1068E775E080E090E0FECE69EA70E0F9
:103A900002973CF2C3CF60EA70E0029714F2BECF07
:103AA00064E970E002970CF4BCCFB8CF6DE870E029
:103AB00002970CF4B6CFB2CF67E870E002970CF42F
:103AC000B0CFACCF6CE770E002970CF4AACFA6CFD2
:103AD00002972CF062E770E0C8010E94861DC801C1
:103AE0000E944A1068EC7FEA80E090E0CDCE029719
:103AF0002CF068E670E0C8010E94861DC8010E9493
:103B00004A1068EF7EE182E090E0BECEFB01DC016E
:103B100005900D920020E1F708950E94981DA59F41
:103B2000900DB49F900DA49F800D911D11240895B8
:103B3000A29FB001B39FC001A39F700D811D1124EE
:103B4000911DB29F700D811D1124911D0895A1E258
:103B50001A2EAA1BBB1BFD010DC0AA1FBB1FEE1F07
:103B6000FF1FA217B307E407F50720F0A21BB30B52
:103B7000E40BF50B661F771F881F991F1A9469F7CE
:103B800060957095809590959B01AC01BD01CF012A
:103B90000895052E97FB1EF400940E94E01D57FD2A
:103BA00007D00E94A71D07FC03D04EF40C94E01D23
:103BB00050954095309521953F4F4F4F5F4F089559
:103BC00090958095709561957F4F8F4F9F4F089589
:103BD000EE0FFF1F0590F491E02D09940F931F93B2
:103BE000CF93DF938230910510F482E090E0E09172
:103BF0002805F091290530E020E0B0E0A0E0309702
:103C000099F42115310509F44AC0281B390B2430D9
:103C10003105D8F58A819B816115710589F1FB0118
:103C200093838283FE0111C04081518102811381FF
:103C300048175907E0F04817590799F4109761F0B1
:103C400012960C93129713961C933296CF01DF9124
:103C5000CF911F910F910895009328051093290586
:103C6000F4CF2115310551F04217530738F0A9015F
:103C7000DB019A01BD01DF01F801C1CFEF01F9CFEE
:103C80009093290580932805CDCFFE01E20FF31F05
:103C9000819391932250310939832883D7CF209182
:103CA000260530912705232B41F4209109013091FD
:103CB0000A013093270520932605209107013091B2
:103CC00008012115310541F42DB73EB740910B0194
:103CD00050910C01241B350BE0912605F09127052E
:103CE000E217F307A0F42E1B3F0B2817390778F0D3
:103CF000AC014E5F5F4F2417350748F04E0F5F1F32
:103D00005093270540932605819391939FCFF0E030
:103D1000E0E09CCFCF93DF930097E9F0FC0132976E
:103D200013821282A0912805B0912905ED0130E09F
:103D300020E01097A1F420813181820F931F209100
:103D40002605309127052817390709F061C0F0933F
:103D50002705E0932605DF91CF910895EA01CE175C
:103D6000DF07E8F54A815B819E0141155105B1F7F6
:103D7000E901FB83EA8349915991C40FD51FEC17E0
:103D8000FD0761F4808191810296840F951FE901FE
:103D900099838883828193819B838A83F0E0E0E02A
:103DA00012968D919C9113970097B9F52D913C91A6
:103DB0001197CD010296820F931F20912605309115
:103DC00027052817390739F6309751F5109229053C
:103DD00010922805B0932705A0932605BCCFD38366
:103DE000C28340815181840F951FC817D90761F4A0
:103DF0004E5F5F4F88819981480F591F51834083DF
:103E00008A819B81938382832115310509F0B0CF8C
:103E1000F0932905E09328059ECFFD01DC01C0CF7A
:103E200013821282D7CFFB01DC0104C08D91019077
:103E3000801921F441505040C8F7881B990B089510
:103E4000FC018191861721F08823D9F799270895DD
:103E50003197CF010895FB01DC014150504048F0FB
:103E600001900D920020C9F701C01D9241505040B1
:103E7000E0F70895F894FFCF010160FFFFFFFF0016
:103E8000002A0580005741564500000000DE020C64
:103E90000239022B039C0248025C0200000000A4CD
:103EA0000D0C029E0BB60E000000005B0E3E0E2EA7
:103EB0000E050E0E0E880E920E2F000A43617274CC
:103EC000616F20534420496E696369616C697A614E
:103ED000646F2E2E2E000D0A000A43617274616F0A
:103EE0002053442046616C686F75210038383239A0
:023EF00032009E
:107E0000112484B714BE81FFF0D085E080938100F7
:107E100082E08093C00088E18093C10086E0809377
:107E2000C20080E18093C4008EE0C9D0259A86E02C
:107E300020E33CEF91E0309385002093840096BBD3
:107E4000B09BFECF1D9AA8958150A9F7CC24DD24C4
:107E500088248394B5E0AB2EA1E19A2EF3E0BF2EE7
:107E6000A2D0813461F49FD0082FAFD0023811F036
:107E7000013811F484E001C083E08DD089C08234E0
:107E800011F484E103C0853419F485E0A6D080C0E4
:107E9000853579F488D0E82EFF2485D0082F10E0AE
:107EA000102F00270E291F29000F111F8ED06801E7
:107EB0006FC0863521F484E090D080E0DECF843638
:107EC00009F040C070D06FD0082F6DD080E0C81688
:107ED00080E7D80618F4F601B7BEE895C0E0D1E017
:107EE00062D089930C17E1F7F0E0CF16F0E7DF06D8
:107EF00018F0F601B7BEE89568D007B600FCFDCFD4
:107F0000A601A0E0B1E02C9130E011968C91119780
:107F100090E0982F8827822B932B1296FA010C0160
:107F200087BEE89511244E5F5F4FF1E0A038BF0790
:107F300051F7F601A7BEE89507B600FCFDCF97BE46
:107F4000E89526C08437B1F42ED02DD0F82E2BD052
:107F50003CD0F601EF2C8F010F5F1F4F84911BD097
:107F6000EA94F801C1F70894C11CD11CFA94CF0C13
:107F7000D11C0EC0853739F428D08EE10CD085E9AC
:107F80000AD08FE07ACF813511F488E018D01DD067
:107F900080E101D065CF982F8091C00085FFFCCF94
:107FA0009093C60008958091C00087FFFCCF809118
:107FB000C00084FD01C0A8958091C6000895E0E648
:107FC000F0E098E1908380830895EDDF803219F02E
:107FD00088E0F5DFFFCF84E1DECF1F93182FE3DFCA
:107FE0001150E9F7F2DF1F91089580E0E8DFEE27F6
:047FF000FF270994CA
:027FFE00040479
:00000001FF
